S013000044494F5F4155544F5341522E73726563B7
S11300000C942A000C9447000C9447000C9447006D
S11300100C9447000C9447000C9447000C94470040
S11300200C9447000C9447000C9447000C94470030
S11300300C9447000C9447000C9447000C94470020
S11300400C9447000C9447000C9447000C94470010
S11300500C94470011241FBECFE5D8E0DEBFCDBF0E
S113006010E0A0E6B0E0E4EDF1E002C005900D92EE
S1130070A036B107D9F720E0A0E6B0E001C01D9298
S1130080A036B207E1F70E94DB000C94E8000C9460
S11300900000883018F0883008F087700895CF93F6
S11300A0C82F862F0E944900C23059F018F4C1307D
S11300B089F004C0C33041F0C43049F0E0E0F0E01E
S11300C00BC0E7E3F0E008C0E4E3F0E005C0E1E3DF
S11300D0F0E002C0EAE3F0E0309749F1208141E02A
S11300E050E0082E02C0440F551F0A94E2F730E096
S11300F024233523082E02C0359527950A94E2F768
S1130100232B21F48081482B408311C0208130E0CF
S113011024233523B90102C0759567958A95E2F7C2
S11301206130710521F48081409548234083CF914B
S11301300895CF93DF93C82F862FD42F0E944900B0
S1130140C23059F018F4C13089F004C0C33041F012
S1130150C43049F0E0E0F0E00BC0E8E3F0E008C0B0
S1130160E5E3F0E005C0E2E3F0E002C0EBE3F0E039
S11301703097F1F0D13069F4408121E030E0B901E9
S113018002C0660F771F8A95E2F7CB01842B808328
S11301900FC0D1110DC0408121E030E0B90102C08F
S11301A0660F771F8A95E2F7CB01809584238083BD
S11301B0DF91CF91089541E060E083E00E944F0019
S11301C041E060E183E00E94990080E090E00895BE
S10701D0F894FFCFCD
S9030000FC
